{
  "_format": "hh-sol-artifact-1",
  "contractName": "APIWallet",
  "sourceName": "contracts/APIWallet.sol",
  "abi": [
    {
      "inputs": [
        {
          "internalType": "address",
          "name": "_usdc",
          "type": "address"
        }
      ],
      "stateMutability": "nonpayable",
      "type": "constructor"
    },
    {
      "anonymous": false,
      "inputs": [
        {
          "indexed": true,
          "internalType": "address",
          "name": "from",
          "type": "address"
        },
        {
          "indexed": false,
          "internalType": "uint256",
          "name": "amount",
          "type": "uint256"
        }
      ],
      "name": "Deposited",
      "type": "event"
    },
    {
      "anonymous": false,
      "inputs": [
        {
          "indexed": true,
          "internalType": "address",
          "name": "payer",
          "type": "address"
        },
        {
          "indexed": true,
          "internalType": "address",
          "name": "provider",
          "type": "address"
        },
        {
          "indexed": false,
          "internalType": "uint256",
          "name": "amount",
          "type": "uint256"
        },
        {
          "indexed": true,
          "internalType": "bytes32",
          "name": "invoiceId",
          "type": "bytes32"
        }
      ],
      "name": "Paid",
      "type": "event"
    },
    {
      "anonymous": false,
      "inputs": [
        {
          "indexed": true,
          "internalType": "address",
          "name": "to",
          "type": "address"
        },
        {
          "indexed": false,
          "internalType": "uint256",
          "name": "amount",
          "type": "uint256"
        }
      ],
      "name": "Withdrawn",
      "type": "event"
    },
    {
      "inputs": [],
      "name": "contractBalance",
      "outputs": [
        {
          "internalType": "uint256",
          "name": "",
          "type": "uint256"
        }
      ],
      "stateMutability": "view",
      "type": "function"
    },
    {
      "inputs": [
        {
          "internalType": "uint256",
          "name": "amount",
          "type": "uint256"
        }
      ],
      "name": "deposit",
      "outputs": [],
      "stateMutability": "nonpayable",
      "type": "function"
    },
    {
      "inputs": [
        {
          "internalType": "address",
          "name": "provider",
          "type": "address"
        },
        {
          "internalType": "uint256",
          "name": "amount",
          "type": "uint256"
        },
        {
          "internalType": "bytes32",
          "name": "invoiceId",
          "type": "bytes32"
        }
      ],
      "name": "pay",
      "outputs": [],
      "stateMutability": "nonpayable",
      "type": "function"
    },
    {
      "inputs": [],
      "name": "usdc",
      "outputs": [
        {
          "internalType": "contract IERC20",
          "name": "",
          "type": "address"
        }
      ],
      "stateMutability": "view",
      "type": "function"
    },
    {
      "inputs": [
        {
          "internalType": "address",
          "name": "to",
          "type": "address"
        },
        {
          "internalType": "uint256",
          "name": "amount",
          "type": "uint256"
        }
      ],
      "name": "withdraw",
      "outputs": [],
      "stateMutability": "nonpayable",
      "type": "function"
    }
  ],
  "bytecode": "0x60a06040523480156200001157600080fd5b5060405162000f0038038062000f0083398181016040528101906200003791906200014e565b600073ffffffffffffffffffffffffffffffffffffffff168173ffffffffffffffffffffffffffffffffffffffff1603620000a9576040517f08c379a0000000000000000000000000000000000000000000000000000000008152600401620000a090620001e1565b60405180910390fd5b8073ffffffffffffffffffffffffffffffffffffffff1660808173ffffffffffffffffffffffffffffffffffffffff16815250505062000203565b600080fd5b600073ffffffffffffffffffffffffffffffffffffffff82169050919050565b60006200011682620000e9565b9050919050565b620001288162000109565b81146200013457600080fd5b50565b60008151905062000148816200011d565b92915050565b600060208284031215620001675762000166620000e4565b5b6000620001778482850162000137565b91505092915050565b600082825260208201905092915050565b7f5553444320616464722072657175697265640000000000000000000000000000600082015250565b6000620001c960128362000180565b9150620001d68262000191565b602082019050919050565b60006020820190508181036000830152620001fc81620001ba565b9050919050565b608051610cc66200023a6000396000818160ee015281816101c40152818161030e015281816103f001526105d20152610cc66000f3fe608060405234801561001057600080fd5b50600436106100575760003560e01c80633e413bee1461005c5780635e5571ac1461007a5780638b7afe2e14610096578063b6b55f25146100b4578063f3fef3a3146100d0575b600080fd5b6100646100ec565b604051610071919061077e565b60405180910390f35b610094600480360381019061008f9190610848565b610110565b005b61009e61030a565b6040516100ab91906108aa565b60405180910390f35b6100ce60048036038101906100c991906108c5565b6103ab565b005b6100ea60048036038101906100e591906108f2565b61051e565b005b7f000000000000000000000000000000000000000000000000000000000000000081565b600073ffffffffffffffffffffffffffffffffffffffff168373ffffffffffffffffffffffffffffffffffffffff160361017f576040517f08c379a00000000000000000000000000000000000000000000000000000000081526004016101769061098f565b60405180910390fd5b600082116101c2576040517f08c379a00000000000000000000000000000000000000000000000000000000081526004016101b9906109fb565b60405180910390fd5b7f000000000000000000000000000000000000000000000000000000000000000073ffffffffffffffffffffffffffffffffffffffff1663a9059cbb84846040518363ffffffff1660e01b815260040161021d929190610a2a565b6020604051808303816000875af115801561023c573d6000803e3d6000fd5b505050506040513d601f19601f820116820180604052508101906102609190610a8b565b61029f576040517f08c379a000000000000000000000000000000000000000000000000000000000815260040161029690610b04565b60405180910390fd5b808373ffffffffffffffffffffffffffffffffffffffff163373ffffffffffffffffffffffffffffffffffffffff167faa1c213df8b2ea1210243bbab345f0aa02826cd3b851cc92522eff84a1cf0f5e856040516102fd91906108aa565b60405180910390a4505050565b60007f000000000000000000000000000000000000000000000000000000000000000073ffffffffffffffffffffffffffffffffffffffff166370a08231306040518263ffffffff1660e01b81526004016103659190610b24565b602060405180830381865afa158015610382573d6000803e3d6000fd5b505050506040513d601f19601f820116820180604052508101906103a69190610b54565b905090565b600081116103ee576040517f08c379a00000000000000000000000000000000000000000000000000000000081526004016103e5906109fb565b60405180910390fd5b7f000000000000000000000000000000000000000000000000000000000000000073ffffffffffffffffffffffffffffffffffffffff166323b872dd3330846040518463ffffffff1660e01b815260040161044b93929190610b81565b6020604051808303816000875af115801561046a573d6000803e3d6000fd5b505050506040513d601f19601f8201168201806040525081019061048e9190610a8b565b6104cd576040517f08c379a00000000000000000000000000000000000000000000000000000000081526004016104c490610c04565b60405180910390fd5b3373ffffffffffffffffffffffffffffffffffffffff167f2da466a7b24304f47e87fa2e1e5a81b9831ce54fec19055ce277ca2f39ba42c48260405161051391906108aa565b60405180910390a250565b600073ffffffffffffffffffffffffffffffffffffffff168273ffffffffffffffffffffffffffffffffffffffff160361058d576040517f08c379a000000000000000000000000000000000000000000000000000000000815260040161058490610c70565b60405180910390fd5b600081116105d0576040517f08c379a00000000000000000000000000000000000000000000000000000000081526004016105c7906109fb565b60405180910390fd5b7f000000000000000000000000000000000000000000000000000000000000000073ffffffffffffffffffffffffffffffffffffffff1663a9059cbb83836040518363ffffffff1660e01b815260040161062b929190610a2a565b6020604051808303816000875af115801561064a573d6000803e3d6000fd5b505050506040513d601f19601f8201168201806040525081019061066e9190610a8b565b6106ad576040517f08c379a00000000000000000000000000000000000000000000000000000000081526004016106a490610b04565b60405180910390fd5b8173ffffffffffffffffffffffffffffffffffffffff167f7084f5476618d8e60b11ef0d7d3f06914655adb8793e28ff7f018d4c76d505d5826040516106f391906108aa565b60405180910390a25050565b600073ffffffffffffffffffffffffffffffffffffffff82169050919050565b6000819050919050565b600061074461073f61073a846106ff565b61071f565b6106ff565b9050919050565b600061075682610729565b9050919050565b60006107688261074b565b9050919050565b6107788161075d565b82525050565b6000602082019050610793600083018461076f565b92915050565b600080fd5b60006107a9826106ff565b9050919050565b6107b98161079e565b81146107c457600080fd5b50565b6000813590506107d6816107b0565b92915050565b6000819050919050565b6107ef816107dc565b81146107fa57600080fd5b50565b60008135905061080c816107e6565b92915050565b6000819050919050565b61082581610812565b811461083057600080fd5b50565b6000813590506108428161081c565b92915050565b60008060006060848603121561086157610860610799565b5b600061086f868287016107c7565b9350506020610880868287016107fd565b925050604061089186828701610833565b9150509250925092565b6108a4816107dc565b82525050565b60006020820190506108bf600083018461089b565b92915050565b6000602082840312156108db576108da610799565b5b60006108e9848285016107fd565b91505092915050565b6000806040838503121561090957610908610799565b5b6000610917858286016107c7565b9250506020610928858286016107fd565b9150509250929050565b600082825260208201905092915050565b7f6261642070726f76696465720000000000000000000000000000000000000000600082015250565b6000610979600c83610932565b915061098482610943565b602082019050919050565b600060208201905081810360008301526109a88161096c565b9050919050565b7f616d6f756e743d30000000000000000000000000000000000000000000000000600082015250565b60006109e5600883610932565b91506109f0826109af565b602082019050919050565b60006020820190508181036000830152610a14816109d8565b9050919050565b610a248161079e565b82525050565b6000604082019050610a3f6000830185610a1b565b610a4c602083018461089b565b9392505050565b60008115159050919050565b610a6881610a53565b8114610a7357600080fd5b50565b600081519050610a8581610a5f565b92915050565b600060208284031215610aa157610aa0610799565b5b6000610aaf84828501610a76565b91505092915050565b7f7472616e73666572206661696c65640000000000000000000000000000000000600082015250565b6000610aee600f83610932565b9150610af982610ab8565b602082019050919050565b60006020820190508181036000830152610b1d81610ae1565b9050919050565b6000602082019050610b396000830184610a1b565b92915050565b600081519050610b4e816107e6565b92915050565b600060208284031215610b6a57610b69610799565b5b6000610b7884828501610b3f565b91505092915050565b6000606082019050610b966000830186610a1b565b610ba36020830185610a1b565b610bb0604083018461089b565b949350505050565b7f7472616e7366657246726f6d206661696c656400000000000000000000000000600082015250565b6000610bee601383610932565b9150610bf982610bb8565b602082019050919050565b60006020820190508181036000830152610c1d81610be1565b9050919050565b7f62616420746f0000000000000000000000000000000000000000000000000000600082015250565b6000610c5a600683610932565b9150610c6582610c24565b602082019050919050565b60006020820190508181036000830152610c8981610c4d565b905091905056fea2646970667358221220a3b45c14dffe32c7f397562d0888e1befe25b96aa96675ec9312fd61b1e085a964736f6c63430008140033",
  "linkReferences": {},
  "deployedLinkReferences": {}
}